:020000040800F2
:1000000088050020290200083B0B0008330B00087C
:10001000370B000831030008410D00080000000004
:100020000000000000000000000000003F0B00087E
:1000300035030008000000003D0B0008410B0008DC
:100040004D0200084D0200084D0200084D02000854
:100050004D0200084D0200084D0200084D02000844
:100060004D0200084D0200084D0200084D02000834
:100070004D0200084D0200084D0200084D02000824
:100080004D0200084D0200084D0200084D02000814
:100090004D0200084D0200084D0200084D02000804
:1000A0004D0200084D0200084D0200084D020008F4
:1000B0004D0200084D0200084D0200084D020008E4
:1000C0004D0200084D0200084D0200084D020008D4
:1000D0004D020008310D00084D0200084D020008D5
:1000E0004D0200084D0200084D0200084D020008B4
:1000F0004D0200084D0200084D0200084D020008A4
:100100004D0200084D0200084D0200084D02000893
:100110004D0200084D0200084D0200084D02000883
:100120004D0200084D0200084D0200084D02000873
:100130004D0200084D0200084D0200084D02000863
:100140004D0200084D0200084D0200084D02000853
:100150004D0200084D0200084D0200084D02000843
:100160004D0200084D0200084D0200084D02000833
:100170004D0200084D0200084D020008000000007A
:100180004D0200084D02000800F002F800F03CF8B3
:100190000AA090E8000C82448344AAF10107DA45E2
:1001A00001D100F031F8AFF2090EBAE80F0013F0F8
:1001B000010F18BFFB1A43F001031847540C00004D
:1001C000740C0000103A24BF78C878C1FAD85207DE
:1001D00024BF30C830C144BF04680C6070470000C1
:1001E0000023002400250026103A28BF78C1FBD840
:1001F000520728BF30C148BF0B6070471FB500F0E1
:1002000001FE1FBD10B510BD00F060F81146FFF7EC
:10021000F5FF00F0E3FD00F07EF803B4FFF7F2FF16
:1002200003BC00F0ABFD00000C48016841F4700114
:1002300001600B4880470B480047FEE7FEE7FEE7FA
:10024000FEE7FEE7FEE7FEE7FEE7FEE7FEE700006B
:1002500005480649044A064B7047000088ED00E057
:100260004D0B000889010008880100208805002046
:100270008801002070474FF0000200B513469446F5
:100280009646203922BFA0E80C50A0E80C50B1F1EE
:100290002001BFF4F7AF090728BFA0E80C5048BF02
:1002A0000CC05DF804EB890028BF40F8042B08BFA0
:1002B000704748BF20F8022B11F0804F18BF00F89C
:1002C000012B70477047704770477047754600F0C4
:1002D0002BF8AE4605006946534620F007008546D8
:1002E00018B020B5FFF7B4FFBDE820404FF000067E
:1002F0004FF000074FF000084FF0000B21F007010E
:10030000AC46ACE8C009ACE8C009ACE8C009ACE850
:10031000C0098D46704710B50446AFF300802046F3
:10032000BDE81040FFF779BF004870472801002062
:1003300000BFFEE77047000000B587B000BF002097
:1003400001900F48006840F020000D490860084601
:10035000006800F02000019000BF00BF142102A837
:10036000FFF789FF4FF400700290012003900020F6
:100370000490059002A9034800F076F807B000BD8C
:10038000303802400014024070B50446A56D00F0FC
:1003900077F9064694F83500022808D08020606579
:1003A00000BF002084F8340000BF012070BD206829
:1003B000006820F01600216808602068406920F07D
:1003C000800021684861206C08B9A06C28B12068C1
:1003D000006820F00800216808602068006820F0AC
:1003E0000100216808600FE000F04AF9801B052831
:1003F0000AD92020606500BF002084F8340000BFC7
:10040000032084F83500D1E72068006800F001007F
:100410000028E9D194F85C103F208840A86000BF14
:10042000002084F8340000BF012084F8350000204B
:10043000BCE7014691F83500022803D080204865CA
:1004400001207047052081F835000868006820F019
:1004500001000A6810600020F3E710B50446A0B25E
:1004600000F08EFC10BD0000F8B502460B460025DA
:10047000002400200021DEE0012606FA01F51E68B6
:1004800006EA0504AC4275D11E7906F00306012E7A
:1004900004D01E7906F00306022E13D190684F0097
:1004A0000326BE40B0434F00DE68BE40304390603C
:1004B000506801268E40B0431E79C6F300168E4068
:1004C000304350601E7906F00306032E09D0D06831
:1004D0004F000326BE40B0434F009E68BE403043ED
:1004E000D0601E7906F00306022E13D1CF0802F168
:1004F000200656F827004E07F70E0F26BE40B043E1
:100500004F07FF0E1E69BE403043CF0802F12006A0
:1005100046F8270010684F000326BE40B0431E79FE
:1005200006F003064F00BE40304310605E6806F0E0
:100530008056B6F1805F7DD100BF00260096404E08
:10054000366846F480463E4F3E603E46366806F4C6
:100550008046009600BF00BF3A4E8F0856F827002D
:100560008E07370F0F26BE40B043374EB24202D13E
:10057000002624E05EE0354EB24201D101261EE0A5
:10058000334EB24201D1022619E0324EB24201D1BD
:10059000032614E0304EB24201D104260FE02F4E64
:1005A000B24201D105260AE02D4EB24201D1062603
:1005B00005E02C4EB24201D1072600E008268F0745
:1005C0003F0FBE4030431F4E8F0846F82700264E8F
:1005D0003068A0435E6806F48036B6F5803F00D1EF
:1005E0002043214E3060361D3068A0435E6806F41B
:1005F0000036B6F5003F00D120431B4E361D30605B
:10060000361D3068A0435E6806F48016B6F5801F7C
:1006100000D12043144E08363060361D3068A043A8
:100620005E6806F40016B6F5001F00D120430E4E9A
:100630000C363060491C1029FFF41EAFF8BD0000D5
:1006400044380240083801400000024000040240E3
:1006500000080240000C024000100240001402405A
:1006600000180240001C0240003C014010B54269E5
:1006700021EA020302EA010443EA0443836110BD54
:10068000014800687047000010000020034800681F
:1006900003490978084401490860704710000020A8
:1006A0001800002010B50A48006840F4007008499E
:1006B00008600846006840F480600860052000F08B
:1006C0006FF80F2000F006F800F02AF8002010BDA7
:1006D000003C024070B504460E4800784FF47A7131
:1006E000B1FBF0F00C490968B1FBF0F5284600F0C9
:1006F0006BF808B1012070BD102C07D200222146F2
:10070000501E00F00EF80548046001E00120F2E7F9
:100710000020F0E718000020000000201400002056
:1007200070472DE9F05F80460D461646002700F021
:1007300009FB074639462A46334601F00700C0F157
:10074000070ABAF1040F02D94FF0040A01E0C0F120
:10075000070AD14600F1040ABAF1070F02D24FF09E
:10076000000A01E0A0F1030AD4464FF0010A0AFA98
:1007700009FAAAF1010A0AEA020A0AFA0CFA4FF087
:10078000010B0BFA0CFBABF1010B0BEA030B4AEA72
:100790000B042146404600F0DDFABDE8F09F000062
:1007A00000BF00F00702064B19684FF6FF0319401F
:1007B000044B0B4343EA0221014B196000BF704711
:1007C0000CED00E00000FA0570B504462546681EF1
:1007D000B0F1807F01D301200FE0681E4FF0E021CF
:1007E00048610F214FF0FF3000F0B4FA00204FF0C5
:1007F000E021886107200861002070BD70477047C4
:100800002DE9F84F0446206805682068C66820680E
:1008100047694FF00009CA4605F00F09B9F1000F0A
:100820000AD105F0200038B106F0200020B12046A2
:1008300000F0CBF9BDE8F88FB9F1000F72D007F0E6
:10084000010018B906F4907000286BD005F0010083
:1008500030B106F4807018B1206C40F001002064C3
:1008600005F0040030B107F0010018B1206C40F031
:100870000200206405F0020030B107F0010018B159
:10088000206C40F00400206405F0080048B106F038
:10089000200010B907F0010018B1206C40F00800EA
:1008A0002064206C70B305F0200028B106F0200011
:1008B00010B1204600F089F920684069C0F3801A21
:1008C000206C00F0080010B9BAF1000F23D02046C8
:1008D00000F050F92068406900F04000402816D12F
:1008E0002068406920F0400021684861A06B50B149
:1008F0005648A16B0865A06BFFF79BFD10B1A06B7C
:10090000016D88470CE02046FFF779FF08E020469C
:10091000FFF775FF04E02046FFF771FF0020206419
:1009200088E7FFE7206B012879D105F01000002847
:1009300075D006F01000002871D000BF0020009094
:1009400020680068009020684068009000BF00BFE9
:100950002068406900F04000402839D1A06B006851
:1009600040681FFA80F8B8F1000F30D0A08D4045E4
:100970002DDDA4F82E80A06BC069B0F5807F1FD05C
:100980002068C06820F480702168C86020684069D1
:1009900020F00100216848612068406920F0400093
:1009A00021684861202084F83E00002020632068F0
:1009B000C06820F010002168C860A06BFFF7E4FC5D
:1009C000A08DE28D801A81B22046FFF717FF31E734
:1009D000A08DE18D401A1FFA80F8E08DE8B1B8F1E2
:1009E000000F1AD02068C06820F490702168C86099
:1009F0002068406920F0010021684861202084F8C7
:100A00003E00002020632068C06820F010002168AC
:100A1000C86041462046FFF7F1FE0BE7FFE705F00F
:100A2000800030B106F0800018B1204600F04FF988
:100A300000E705F0400030B106F0400018B1204654
:100A400000F0B3F8F6E600BFF4E60000610B000822
:100A500070B504460D46164694F83E00202816D17F
:100A600005B10EB9012070BD00BF94F83C0001280B
:100A700001D10220F7E7012084F83C0000BF0020EC
:100A8000206332462946204600F0FEF8EBE70220BC
:100A9000E9E7000010B504462049206888423BD1B0
:100AA0001F48008800F4004088BB1D48008800F4FF
:100AB000804070B11B4800780A2803D000201849F4
:100AC000088024E01648008840F40040144908805B
:100AD0001DE0144800780D2806D11148008840F424
:100AE00080400F49088012E00E4800780C490988C0
:100AF000C1F30D010C4A505409480088401C0849B4
:100B0000088008460088C72801DD002008800122EF
:100B100004490648FFF79CFF10BD0000001001408B
:100B20000C0000200E0000201C000020E40000202B
:100B3000704700BFFEE700BFFEE770477047704791
:100B400010B5FFF7A3FD10BD704700000348006813
:100B500040F47000014908607047000088ED00E033
:100B600070B50546AC6B0020E085E0842046FFF7B9
:100B700046FE70BD0168C96821F490710268D160B9
:100B80000168496921F0010102685161016B012985
:100B900005D10168C96821F010010268D1602021E7
:100BA00080F83E1000210163704710B504462068AC
:100BB000C06820F040002168C860202084F83D0013
:100BC0002046FFF7B5FF002010BD70B5044694F82D
:100BD0003E00222856D1A068B0F5805F0CD1206974
:100BE00050B90025A66A20684068C0F3080030802C
:100BF000A06A801CA06215E0A56A0026A068B0F576
:100C0000805F03D0A06828B9206918B920684068BF
:100C1000287004E02068406800F07F002870A06A17
:100C2000401CA062E08D401E80B2E08540BB206881
:100C3000C06820F020002168C8602068C06820F4E7
:100C400080702168C8602068406920F00100216838
:100C50004861202084F83E00206B01280AD12068DA
:100C6000C06820F010002168C860A18D2046FFF701
:100C7000C5FD02E02046FFF70DFF0020206370BD98
:100C80000020FCE70220FAE710B5034699629A8536
:100C9000DA8500201864222083F83E0000BF00207F
:100CA00083F83C0000BF1868C06840F480701C687E
:100CB000E0601868406940F001001C6860611868D5
:100CC000C06840F020001C68E060002010BD0146B4
:100CD00091F83D00212828D18868B0F5805F0BD1BC
:100CE000086948B90A6A1088C0F308000B685860A0
:100CF000086A801C086205E00B6A581C08621878B4
:100D00000B685860C88C401E80B2C88458B9086807
:100D1000C06820F080000B68D8600868C06840F0A8
:100D200040000B68D860002070470220FCE70000FC
:100D300010B50248FFF764FD10BD0000E40000207C
:100D400000BFFEE702480068C0F3022070470000C1
:100D50000CED00E010B5002804DB0A07130E054A6D
:100D6000135406E00A07140E034A00F00F031B1F7A
:100D7000D45410BD00E400E018ED00E000BF70475F
:100D800010B504464FF47A7104FB01F000F002F84C
:100D900010BD000070B5034600224FF0E0267569D3
:100DA0000D4E366803FB06F44FF0E026B16910E003
:100DB0004FF0E026B06988420BD0884202D20E1A6A
:100DC000324402E02E1A0E4432440146A24200D3BD
:100DD00000E0EDE700BF70BD04000020FFF762FCFB
:100DE000FFF7B2FEFFF7A8FA08E04FF400710448DD
:100DF000FFF73CFC4FF4FA70FFF72FFBF5E700001C
:100E0000001402404FF04070E1EE100A70470000FD
:100E1000300E0008000000201C000000C401000883
:100E20004C0E00081C0000206C050000E0010008CA
:100E30000024F4000000000000000000000000009A
:0C0E400000000000100000000100000095
:040000050800018965
:00000001FF
